:020000040800F2
:1000000000000120C5020008CB020008CF02000852
:1000100041030008450300088D03000800000000AC
:10002000000000000000000000000000D5030008F0
:10003000D903000800000000DD030008E103000808
:10004000F1030008F1030008F1030008F1030008C0
:10005000F1030008F1030008F1030008F1030008B0
:10006000F1030008F1030008F1030008F1030008A0
:10007000F1030008F1030008F1030008F103000890
:10008000F1030008F1030008F1030008000000007C
:10009000000000000000000000000000F103000864
:1000A000F1030008F1030008F1030008F103000860
:1000B000F1030008F1030008F1030008F103000850
:1000C000F1030008F1030008F1030008F103000840
:1000D000F1030008F1030008F1030008000000002C
:1000E000F1030008F1030008F1030008000000001C
:1000F000000000000000000000000000F103000804
:1001000000000000F1030008F1030008F1030008FB
:1001100000000000000000000000000000000000DF
:10012000F1030008F1030008F1030008F1030008DF
:10013000F1030008000000000000000000000000C3
:10014000000000000000000000000000F1030008B3
:10015000F1030008F1030008F1030008F1030008AF
:10016000F1030008F1030008000000000000000097
:10017000000000000000000000000000000000007F
:1001800000000000F1030008000000000000000073
:10019000F103000800B583B000F048FA384B394A43
:1001A0001360394A1360394906E052F8041B43F8DA
:1001B000041B9842F9D86146354B994205D20A682A
:1001C0004B6801F10C0C8868F3E72E4B1A68314B31
:1001D0009A4200D0FEE72C4B1A682F4B9A42F9D175
:1001E000274B2E4A13602E4A13602E4A00E0024627
:1001F0002D4B9A4209D2104650F8083B516899425B
:10020000F5D9002243F8042BF9E7244B1B6813B9F6
:10021000234B1B6803B1FEE700F014FA694601A8FE
:1002200000F022F9214C224BE41AA410002504E02E
:100230001F4B53F8253098470135AC42F8DC1D4C74
:100240001D4BE41AA410002504E01B4B53F8253085
:1002500098470135AC42F8DC0099019800F080FB2A
:100260000546164C164BE41AA41004E0013C144B4E
:1002700053F824309847002CF8DC284600F0D0F8DA
:10028000BABADECA0000002060000020F4030008B3
:100290000C0400087856341232547698640000201A
:1002A000040100200C0400081C0400081C040008C1
:1002B0001C0400081C0400081C0400081C0400089E
:1002C0001C04000808B5FFF765FF00BEFEE71EF03E
:1002D000040F0CBFEFF30880EFF309807146414A29
:1002E00010472DE9F04182B004460D46124B5F6B7A
:1002F000D3F838809E6A1B6B13F0020F03D00E4BAD
:10030000DB6A002B0BDB0D4800F0ECF80095434650
:100310003A463146204600F0FFF800BEFEE74BF6B5
:10032000AB6100F073F90028EDD0034B4FF00042B1
:10033000DA6202B0BDE8F08100ED00E07814000858
:1003400000BEFEE71EF0040F0CBFEFF30880EFF3D2
:1003500009807146244A10472DE9F04182B00446D5
:100360000D46084B5F6BD3F838809E6A064800F054
:10037000B9F8009543463A463146204600F0CCF89D
:1003800000BEFEE700ED00E0881400081EF0040F38
:100390000CBFEFF30880EFF309807146134A104752
:1003A0002DE9F04182B004460D46084B5F6BD3F84F
:1003B00038809E6A064800F095F8009543463A4614
:1003C0003146204600F0A8F800BEFEE700ED00E050
:1003D0009414000800BEFEE700BEFEE700BEFEE784
:1003E00070470000E302000859030008A103000859
:0403F00000BEFEE766
:1003F400E81400080000002064000020E81400084D
:10040400000000100000001064000020080100201B
:080414000000001000000010C0
:10042000FEE7000008B503460C4A12685AB10B4AB1
:100430001068033323F003030344094A934206D8A8
:10044000064A136008BD054A06491160EFE700F04F
:10045000D7FA0C2303604FF0FF30F3E76800002069
:1004600000FC00200801002001230360014B0B6009
:10047000704700BF040000202DE9F04385B004461A
:100480000F4643563BBB042528462146ABBE0546D6
:10049000384605B0BDE8F08314F901CB03F1100232
:1004A0006A4402F810CC0133AB42F5D310336B44ED
:1004B000002203F8102C4FF00408E9464046494654
:1004C000ABBE8046761B002EE2D03546102E28BFEC
:1004D00010250023E8E70E46F5E708B5FFF7CCFF47
:1004E00008BD00000FB400B583B004AB53F8042B73
:1004F00001938021074800F075FA002804DC03B05E
:100500005DF804EB04B0704701460248FFF7E5FFD1
:10051000F5E700BF74000020F8B504460D46174605
:100520001E462748FFF7DEFF21682648FFF7DAFF5F
:1005300061682548FFF7D6FFA1682448FFF7D2FF7E
:10054000E1682348FFF7CEFF21692248FFF7CAFF81
:1005500061692148FFF7C6FFA1692048FFF7C2FF84
:10056000E1691F48FFF7BEFF1E48FFF7BBFF2946A2
:100570001D48FFF7B7FF1D4CE16A1D48FFF7B2FFAA
:10058000216B1C48FFF7AEFFE16B1B48FFF7AAFF8A
:1005900015F0800F0AD115F4004F0CD11748FFF762
:1005A000A1FF06991648FFF79DFFF8BD394615488B
:1005B000FFF798FFEFE731461348FFF793FFEDE7AA
:1005C0005C1300086C1300087C1300088C130008EF
:1005D0009C130008AC130008BC130008CC130008DF
:1005E000DC130008EC130008F813000800ED00E02D
:1005F00008140008181400082814000858140008EB
:1006000060140008381400084814000883691A8828
:100610008A4201D0002070470268033A012A01D9BA
:1006200000207047023383610120704708B500F055
:100630000DF8024A024B9A6008BD00BF0000000896
:1006400000ED00E008B500F009F808BD024B4FF0DE
:1006500000629A60704700BF00ED00E0224B9B688B
:1006600003F00C03042B14D0082B16D01BB11F4B26
:100670001F4A1A6002E01D4B1D4A1A601A4B9B6804
:10068000C3F303131B4AD15C184A1368CB401360B1
:100690007047164B184A1A60F0E7134B59685A68AE
:1006A00002F03F0211F4800F13D0134BB3FBF2F3AF
:1006B0000D4A5268C2F3881202FB03F30A4A5268D9
:1006C000C2F3014201325200B3FBF2F3074A136056
:1006D000D4E7074BB3FBF2F3034A5268C2F3881224
:1006E00002FB03F3EAE700BF003802400C000020E1
:1006F0000024F400A414000800127A00034B002226
:100700001A645A64072119635A637047003802401B
:10071000431EDBB2022B12D802280CD003280CD0C7
:10072000012800D00020074B1B68C34013F0010FC5
:10073000F9D0012070471120F5E71920F3E70020D8
:10074000704700BF0038024010B50446FFF7E0FFD5
:10075000631EDBB2022B29D848B3022C10D0032C25
:1007600019D0012C01D0022021E0114B9A6822F00F
:1007700001029A609A6822F002029A60022016E052
:100780000B4B9A6842F001029A609A6822F00202CA
:100790009A6020460BE0064B9A6822F001029A60AC
:1007A0009A6842F002029A60022000E0002010BD28
:1007B00000380240431EDBB2022B1BD802280BD0AC
:1007C000032810D0012801D0012070470A4A13687D
:1007D00043F0010313607047074A136843F4803302
:1007E000136001207047044A136843F0807313605C
:1007F000012070470220704700380240431EDBB2E0
:10080000022B1BD802280BD0032810D0012801D0BE
:10081000012070470A4A136823F0010313607047F0
:10082000074A136823F48033136001207047044A99
:10083000136823F080731360012070470220704713
:100840000038024002282FD8012812D002281DD0DB
:1008500008B102207047072900D90721134B9A6875
:1008600022F4E0529A609A6842EA81229A6001205A
:100870007047072900D907210C4B9A6822F460427F
:100880009A609A6842EA41329A6070470F2900D90B
:100890000F21064B9A6822F0F0029A609A6842EAA9
:1008A00001129A6001207047022070470038024010
:1008B00010B50220FFF77EFF0220FFF745FF002161
:1008C0000846FFF7BFFF05210120FFF7BBFF00210E
:1008D0000220FFF7B7FF0120FFF790FF0320FFF78B
:1008E0008DFF0446FFF70AFF204610BD09484FF46C
:1008F00080630360084900230B60084A136043606B
:100900004B60536083608B609360C360CB60D36047
:10091000022070470000024000040240000802402C
:1009200002280CD80F290AD85AB1012A07D100F1A0
:10093000804000F5003043698A4013434361022040
:10094000704700EB8000C00000F1804000F50030EF
:10095000436901228A4023EA02034361EFE7000072
:1009600008B5FFF7A5FF084C2070FFF7BFFF207008
:10097000012200210846FFF7D3FF01220021104683
:10098000FFF7CEFFF4E700BFF400002030B51446B7
:10099000002C9BB005461A4605DA8B2303604FF006
:1009A000FF301BB030BD4FF40273ADF80C3014BFF4
:1009B00004F1FF332346029305934FF6FF73009132
:1009C0000491ADF80E3069461E9B00F07BF8431C85
:1009D000BCBF8B232B60002CE3D0009B00221A703D
:1009E000DFE7000007B5009313460A4601460348B7
:1009F0000068FFF7CBFF03B05DF804FB1000002098
:100A0000014B1868704700BF100000202DE9F04727
:100A10008E681F46BE420B6882460C4690462DD813
:100A2000B1F90C2012F4906F26D06569096905EBC5
:100A30004505A3EB010905EBD5757B1C4B446D10F7
:100A40009D4238BF1D46530527D5294600F0BAFB05
:100A5000064660B321694A4600F03AFBA38923F4B5
:100A6000906343F08003A381266165614E44A5EB4A
:100A700009052660A5603E46BE4200D93E46206874
:100A80003246414600F0B4FAA3689B1BA36023687A
:100A9000334423600020BDE8F0872A4600F016FCAE
:100AA00006460028E0D12169504600F01FFB0C23C8
:100AB000CAF80030A38943F04003A3814FF0FF3010
:100AC000E9E700002DE9F04F98468B891B069DB0A1
:100AD00007460D46144610D50B6973B9402100F046
:100AE00071FB2860286130B90C233B604FF0FF3068
:100AF0001DB0BDE8F08F40236B61002309932023D4
:100B00008DF82930CDF80C803023DFF89C818DF8EA
:100B10002A304FF0010923469A4613F8012B0AB1F7
:100B2000252AF9D1BAEB040B0BD05B4622462946A5
:100B30003846FFF76BFF013000F0A780099A5A444E
:100B400009929AF80030002B00F09F8000234FF0AC
:100B5000FF32CDE905230AF1010A049307938DF8CA
:100B600053301A935446052214F8011B4E4800F0E6
:100B70005FFA049AD8B9D00644BF20238DF85330C9
:100B8000110744BF2B238DF853309AF800302A2BDD
:100B900015D0079A544600204FF00A0C214611F850
:100BA000013B303B092B4BD9B0B1079214E0A0EBCD
:100BB000080309FA03F313430493A246D2E7039B05
:100BC000191D1B680391002BBBBF5B4242F0020260
:100BD00007930793B8BF049223782E2B0AD163782A
:100BE0002A2B32D1039B1A1D1B68039243EAE3733D
:100BF00002340593DFF8B4A021780322504600F0B8
:100C000017FA38B1049BA0EB0A004022824013433C
:100C10000134049314F8011B25488DF8281006228E
:100C200000F006FA002836D0224B1BBB039B07338B
:100C300023F0070308330393099B334409936AE7BE
:100C40000CFB02320C460120A8E700230134059377
:100C500019464FF00A0C204610F8012B303A092AA9
:100C600003D9002BC6D00591C4E70CFB0121044633
:100C70000123F0E703AB00932A460F4B04A9384643
:100C8000AFF30080421C0646D6D1AB895B063FF528
:100C90002DAF09982CE703AB00932A46064B04A915
:100CA000384600F079F8EDE7B4140008BA140008EB
:100CB000BE140008000000000D0A00082DE9F047EE
:100CC000164698468A680B69DDF820909342B8BFB3
:100CD0001346336091F8432007460C460AB10133AE
:100CE00033602368990642BF336802333360256856
:100CF00015F0060506D104F1190AE36832689B1A5B
:100D0000AB4226DC94F843302268003B18BF012335
:100D100092062BD404F1430241463846C8470130BD
:100D20001ED02368226903F00603042B02BFE56886
:100D30003368ED1AA3680CBF25EAE57500259342D8
:100D4000C4BF9B1AED1800261A34B5421AD10020F0
:100D500008E00123524641463846C847013003D1D6
:100D60004FF0FF30BDE8F0870135C6E7E1185A1CA7
:100D7000302081F84300224494F8451082F8431053
:100D80000233C7E70123224641463846C8470130AF
:100D9000E6D00136D9E700002DE9FF470F7E0C9E13
:100DA000782F914680460C469A4601F1430207D8B7
:100DB000622F0AD8002F00F0DD80582F00F0C3808A
:100DC00004F1420684F842703AE0A7F16303152B60
:100DD000F6D801A151F823F0310E0008450E0008A5
:100DE000C10D0008C10D0008C10D0008C10D0008AB
:100DF000450E0008C10D0008C10D0008C10D000816
:100E0000C10D00085B0F0008D30E0008130F000887
:100E1000C10D0008C10D00087D0F0008C10D0008BC
:100E2000D30E0008C10D0008C10D00081B0F0008FB
:100E300033681A1D1B68326004F1420684F84230A0
:100E40000123A8E031682368081D30601E0601D523
:100E50000D6803E05D06FBD5B1F900506168002D17
:100E600078DA2D20002984F84300A1602DDA5E484D
:100E70006D420A231646B5FBF3F103FB1157C75D1C
:100E800006F8017D2F46BB420D46F4D9082B0BD145
:100E90002368DF0708D5236961689942DEBF3023E4
:100EA00006F8013C06F1FF36921B2261CDF800A046
:100EB0004B4603AA21464046FFF700FF01306FD1A1
:100EC0004FF0FF3004B0BDE8F08723F00403236047
:100ED000CDE721683368080653F8045B02D449065D
:100EE00048BFADB26F2F4048336014BF0A230823B8
:100EF000002184F843106668A660002EBADB2168E2
:100F000021F004012160002DB4D1002EB2D116468B
:100F1000BCE7236843F0200323603448782784F833
:100F20004570236831681F0651F8045B02D45F06E0
:100F300048BFADB23160D90744BF43F020032360FE
:100F40001DB11023D4E72848E9E7236823F02003E4
:100F50002360F6E724480A23CDE7336825686169F2
:100F6000181D30602E061B6801D5196002E0680666
:100F7000FBD5198000232361164697E733681A1DB5
:100F800032601E6862680021304600F051F808B1F6
:100F9000801B606063682361002384F8433085E729
:100FA0002369324649464046D047013088D02368FD
:100FB0009B0714D4E068039B9842B8BF184681E7AA
:100FC0000123324649464046D04701303FF478AFCE
:100FD0000135E36803995B1AAB42F1DCEAE70025CF
:100FE00004F11906F5E700BFC5140008D61400087F
:100FF000884210B501EB020402D98442234607D887
:10100000431EA14208D011F8012B03F8012FF8E785
:10101000024401468A4200D110BD13F8014D02F886
:10102000014DF7E700000000000000000000000094
:1010300001F0FF01102A2BDB10F0070F08D010F889
:10104000013B013A8B422DD010F0070F42B3F6D18D
:10105000F0B441EA012141EA014122F007047FF0A6
:1010600000070023F0E80256083C85EA010586EAFD
:10107000010685FA47F5A3FA87F586FA47F6A5FA39
:1010800087F68EB9EED1F0BC01F0FF0102F0070245
:1010900032B110F8013B013A83EA010313B1F8D1F0
:1010A0000020704701387047002D06BF35460338D1
:1010B000073815F0010F07D1013015F4807F02BF0A
:1010C000013015F4C03F0130F0BC0138704700BF5B
:1010D0000A44914200F1FF3300D1704710B511F876
:1010E000014B03F8014F9142F9D110BD38B50546C7
:1010F000002941D051F8043C0C1F002BB8BFE41864
:1011000000F0D8F81D4A136833B9636014602846AC
:10111000BDE8384000F0D4B8A34208D920682118AF
:101120008B4201BF19685B6809182160EDE71A4618
:101130005B680BB1A342FAD911685018A0420BD1D9
:1011400020680144501883421160E0D118685B6840
:10115000536008441060DAE702D90C232B60D6E70D
:10116000206821188B4204BF19685B68636004BF64
:10117000091821605460CAE738BD00BFFC00002098
:1011800070B50F4E0C463168054611B900F0CCF829
:1011900030602146284600F0C7F8431C03D14FF0C9
:1011A000FF34204670BDC41C24F00304A042F8D0D4
:1011B000211A284600F0B8F80130F2D1EFE700BF5D
:1011C000F80000202DE9F041CD1C25F0030508357D
:1011D0000C2D38BF0C25002D064601DBA94204D991
:1011E0000C2333600020BDE8F081314F00F062F83D
:1011F0003B681C4644BB29463046FFF7C1FF431CF1
:10120000044650D13C682146002941D1002C44D0ED
:101210002368304604EB030800F086F880453CD193
:1012200021686D1A29463046FFF7AAFF013034D0F5
:1012300023682B4423603B68002B36D05A68A242B7
:1012400029D100225A600EE02268521B1DD40B2ABD
:1012500016D96119A342256018BF5960636808BF99
:10126000396062514B60304600F02AF804F10B00FF
:10127000231D20F00700C21AB5D01B1AA350B2E7F5
:10128000A3426268DED13A60EDE723466468B1E7C5
:101290000C464968B8E71346CEE70C233360304666
:1012A00000F00EF89EE70560DDE75B60FFDE00BF43
:1012B000FC000020014800F047B800BF00010020FA
:1012C000014800F042B800BF000100202DE9F041C4
:1012D000804615460C4621B9BDE8F0411146FFF79E
:1012E00071BF2AB9FFF702FF00242046BDE8F08154
:1012F00000F02CF88542064602D8B5EB500FF4D822
:1013000029464046FFF75EFF07460028ECD0B5426D
:101310002A46214628BF3246FFF7DAFE21464046DC
:10132000FFF7E4FE3C46E0E738B5064D00230446EF
:1013300008462B60FFF776F8431C02D12B6803B1F7
:10134000236038BD700000207047704751F8043C9E
:10135000181F002BBCBF0B58C01870475374616333
:101360006B206672616D653A0A00000020523020E1
:101370003D2020253038580A00000000205231203E
:101380003D2020253038580A00000000205232202D
:101390003D2020253038580A00000000205233201C
:1013A0003D2020253038580A0000000020523132FC
:1013B000203D20253038580A00000000204C5220E3
:1013C0003D2020253038580A0000000020504320DE
:1013D0003D2020253038580A00000000205053528C
:1013E000203D20253038580A000000004653522F77
:1013F0004641523A0A0000002043465352203D2005
:1014000020253038580A00002048465352203D20FD
:1014100020253038580A00002044465352203D20F1
:1014200020253038580A00002041465352203D20E4
:1014300020253038580A0000204D4D464152203DAD
:1014400020253038580A00002042464152203D20D5
:1014500020253038580A00004D6973630A000000E7
:10146000204C522F4558435F52455455524E3D2013
:10147000253038580A0000005B4861726446617587
:101480006C745D0A000000005B4275734661756C08
:10149000745D0A005B55736167654661756C745DC8
:1014A0000A00000000000000000000000102030428
:1014B00006070809232D302B2000686C4C00656658
:1014C0006745464700303132333435363738394195
:1014D00042434445460030313233343536373839AB
:0714E00061626364656600B0
:1014E800785634126C000020000000000024F4003C
:1014F8001400002000000000000000006800000048
:10150800D000000000000000000000000000000003
:1015180000000000000000000000000000000000C3
:1015280000000000000000000000000000000000B3
:1015380000000000000000000000000000000000A3
:04154800325476980B
:040000050800019559
:00000001FF
